{
  "address": "0x42daAF60a732F1Bb65272B03274a103a3d2e1306",
  "abi": [
    {
      "inputs": [
        {
          "internalType": "address",
          "name": "brevisProof",
          "type": "address"
        }
      ],
      "stateMutability": "nonpayable",
      "type": "constructor"
    },
    {
      "inputs": [
        {
          "internalType": "address",
          "name": "owner",
          "type": "address"
        }
      ],
      "name": "OwnableInvalidOwner",
      "type": "error"
    },
    {
      "inputs": [
        {
          "internalType": "address",
          "name": "account",
          "type": "address"
        }
      ],
      "name": "OwnableUnauthorizedAccount",
      "type": "error"
    },
    {
      "anonymous": false,
      "inputs": [
        {
          "indexed": false,
          "internalType": "address",
          "name": "account",
          "type": "address"
        },
        {
          "indexed": false,
          "internalType": "uint64",
          "name": "blockNum",
          "type": "uint64"
        }
      ],
      "name": "HedgehogLoyaltyAttested",
      "type": "event"
    },
    {
      "anonymous": false,
      "inputs": [
        {
          "indexed": true,
          "internalType": "address",
          "name": "previousOwner",
          "type": "address"
        },
        {
          "indexed": true,
          "internalType": "address",
          "name": "newOwner",
          "type": "address"
        }
      ],
      "name": "OwnershipTransferred",
      "type": "event"
    },
    {
      "inputs": [
        {
          "internalType": "bytes32",
          "name": "_requestId",
          "type": "bytes32"
        },
        {
          "internalType": "bytes",
          "name": "_appCircuitOutput",
          "type": "bytes"
        }
      ],
      "name": "brevisCallback",
      "outputs": [],
      "stateMutability": "nonpayable",
      "type": "function"
    },
    {
      "inputs": [],
      "name": "brevisProof",
      "outputs": [
        {
          "internalType": "contract IBrevisProof",
          "name": "",
          "type": "address"
        }
      ],
      "stateMutability": "view",
      "type": "function"
    },
    {
      "inputs": [
        {
          "internalType": "address",
          "name": "",
          "type": "address"
        }
      ],
      "name": "isLoyal",
      "outputs": [
        {
          "internalType": "uint64",
          "name": "",
          "type": "uint64"
        }
      ],
      "stateMutability": "view",
      "type": "function"
    },
    {
      "inputs": [],
      "name": "owner",
      "outputs": [
        {
          "internalType": "address",
          "name": "",
          "type": "address"
        }
      ],
      "stateMutability": "view",
      "type": "function"
    },
    {
      "inputs": [],
      "name": "renounceOwnership",
      "outputs": [],
      "stateMutability": "nonpayable",
      "type": "function"
    },
    {
      "inputs": [
        {
          "internalType": "bytes32",
          "name": "_vkHash",
          "type": "bytes32"
        }
      ],
      "name": "setVkHash",
      "outputs": [],
      "stateMutability": "nonpayable",
      "type": "function"
    },
    {
      "inputs": [
        {
          "internalType": "address",
          "name": "newOwner",
          "type": "address"
        }
      ],
      "name": "transferOwnership",
      "outputs": [],
      "stateMutability": "nonpayable",
      "type": "function"
    },
    {
      "inputs": [
        {
          "internalType": "bytes32",
          "name": "_requestId",
          "type": "bytes32"
        },
        {
          "internalType": "uint64",
          "name": "_chainId",
          "type": "uint64"
        },
        {
          "components": [
            {
              "internalType": "bytes32",
              "name": "smtRoot",
              "type": "bytes32"
            },
            {
              "components": [
                {
                  "internalType": "uint64",
                  "name": "blkNum",
                  "type": "uint64"
                },
                {
                  "internalType": "uint64",
                  "name": "receiptIndex",
                  "type": "uint64"
                },
                {
                  "components": [
                    {
                      "components": [
                        {
                          "internalType": "uint8",
                          "name": "valueFromTopic",
                          "type": "uint8"
                        },
                        {
                          "internalType": "uint64",
                          "name": "valueIndex",
                          "type": "uint64"
                        },
                        {
                          "internalType": "address",
                          "name": "contractAddress",
                          "type": "address"
                        },
                        {
                          "internalType": "bytes32",
                          "name": "logTopic0",
                          "type": "bytes32"
                        }
                      ],
                      "internalType": "struct Brevis.LogExtraInfo",
                      "name": "logExtraInfo",
                      "type": "tuple"
                    },
                    {
                      "internalType": "uint64",
                      "name": "logIndex",
                      "type": "uint64"
                    },
                    {
                      "internalType": "bytes32",
                      "name": "value",
                      "type": "bytes32"
                    }
                  ],
                  "internalType": "struct Brevis.LogInfo[5]",
                  "name": "logs",
                  "type": "tuple[5]"
                }
              ],
              "internalType": "struct Brevis.ReceiptInfo[]",
              "name": "receipts",
              "type": "tuple[]"
            },
            {
              "components": [
                {
                  "internalType": "bytes32",
                  "name": "blockHash",
                  "type": "bytes32"
                },
                {
                  "internalType": "address",
                  "name": "account",
                  "type": "address"
                },
                {
                  "internalType": "bytes32",
                  "name": "slot",
                  "type": "bytes32"
                },
                {
                  "internalType": "bytes32",
                  "name": "slotValue",
                  "type": "bytes32"
                },
                {
                  "internalType": "uint64",
                  "name": "blockNumber",
                  "type": "uint64"
                }
              ],
              "internalType": "struct Brevis.StorageInfo[]",
              "name": "stores",
              "type": "tuple[]"
            },
            {
              "components": [
                {
                  "internalType": "bytes32",
                  "name": "leafHash",
                  "type": "bytes32"
                },
                {
                  "internalType": "bytes32",
                  "name": "blockHash",
                  "type": "bytes32"
                },
                {
                  "internalType": "uint64",
                  "name": "blockNumber",
                  "type": "uint64"
                },
                {
                  "internalType": "uint64",
                  "name": "blockTime",
                  "type": "uint64"
                },
                {
                  "internalType": "bytes",
                  "name": "leafRlpPrefix",
                  "type": "bytes"
                }
              ],
              "internalType": "struct Brevis.TransactionInfo[]",
              "name": "txs",
              "type": "tuple[]"
            }
          ],
          "internalType": "struct Brevis.ExtractInfos",
          "name": "_extractInfos",
          "type": "tuple"
        }
      ],
      "name": "validateRequest",
      "outputs": [
        {
          "internalType": "bool",
          "name": "",
          "type": "bool"
        }
      ],
      "stateMutability": "view",
      "type": "function"
    },
    {
      "inputs": [],
      "name": "vkHash",
      "outputs": [
        {
          "internalType": "bytes32",
          "name": "",
          "type": "bytes32"
        }
      ],
      "stateMutability": "view",
      "type": "function"
    }
  ],
  "transactionHash": "0xcc1c1b2cff5dc567f19471932bc98e43c06406d1ab440831a8bfb8a489fc7a80",
  "args": [
    "0x4446e0f8417C1db113899929A8F3cEe8e0DcBCDb"
  ],
  "numDeployments": 1,
  "solcInputHash": "f8fab0908f1e5f54904b3eac5ef291f6",
  "bytecode": "0x60a0346100dd57601f610e1d38819003918201601f19168301916001600160401b038311848410176100e2578084926020946040528339810103126100dd57516001600160a01b0390818116908190036100dd5760805233156100c4576000543360018060a01b0319821617600055604051913391167f8be0079c531659141344cd1fd0a4f28419497f9722a3daafe3b4186f6b6457e0600080a3610d2490816100f9823960805181818161013b015281816103600152818161045b015261094c0152f35b604051631e4fbdf760e01b815260006004820152602490fd5b600080fd5b634e487b7160e01b600052604160045260246000fdfe608080604052600436101561001357600080fd5b60003560e01c90816303c5ce1414610b6e575080634fe840f514610b50578063715018a614610aea5780637859f6d914610ac957806379d6b6a2146108dd5780637c08aa74146101865780638da5cb5b1461015f578063c7f5aaa01461011b5763f2fde38b1461008257600080fd5b346101165760203660031901126101165761009b610bae565b6100a3610cc2565b6001600160a01b038091169081156100fd576000548273ffffffffffffffffffffffffffffffffffffffff19821617600055167f8be0079c531659141344cd1fd0a4f28419497f9722a3daafe3b4186f6b6457e0600080a3005b604051631e4fbdf760e01b815260006004820152602490fd5b600080fd5b346101165760003660031901126101165760206040516001600160a01b037f0000000000000000000000000000000000000000000000000000000000000000168152f35b346101165760003660031901126101165760206001600160a01b0360005416604051908152f35b3461011657600319606036820112610116576024359067ffffffffffffffff821682036101165767ffffffffffffffff604435116101165760809060443536030112610116576040516101d881610bed565b6044356004013581526024604435013567ffffffffffffffff81116101165760443501366023820112156101165760048101359061021582610c63565b916102236040519384610c41565b808352602083019136602483600a1b830101116101165760248101925b602483600a1b83010184106107c85750505050602082015260448035013567ffffffffffffffff81116101165760443501366023820112156101165760048101359061028b82610c63565b916102996040519384610c41565b808352602083019136602460a0840283010111610116579160248301925b602460a084028201018410610764575050505060408201526064604435013567ffffffffffffffff8111610116573660238260443501011215610116576004816044350101359061030782610c63565b916103156040519384610c41565b80835260208301913660248360051b8360443501010111610116576024816044350101925b60248360051b83604435010101841061068f575050505060608201526001600160a01b037f0000000000000000000000000000000000000000000000000000000000000000163b1561011657604051631f022a9d60e21b8152600480359082015267ffffffffffffffff9092166024830152606060448301528051606483015260208082015160806084850152805160e4850181905284936101048501939092019060005b8181106105d1575050506040810151916063198482030160a48501526020808451928381520193019060005b8181106105785750505060600151906063198382030160c484015281519081815260208101916020808260051b8401019401926000925b8284106104cd5786600081808903816001600160a01b037f0000000000000000000000000000000000000000000000000000000000000000165afa80156104c157610493575b602060405160018152f35b67ffffffffffffffff81116104ab5760405280610488565b634e487b7160e01b600052604160045260246000fd5b6040513d6000823e3d90fd5b919395509193601f1982820301835260808651805183526020810151602084015267ffffffffffffffff604082015116604084015267ffffffffffffffff606082015116606084015201519060a060808201528151918260a083015260005b8381106105625750506020600192819260c0916000838284010152601f8019910116010197019301940191929093869594610442565b80602080928401015160c082860101520161052c565b9194509192602060a060019267ffffffffffffffff60808951805184526001600160a01b03868201511686850152604081015160408501526060810151606085015201511660808201520195019101918594939261040b565b91945091926040855167ffffffffffffffff815116835267ffffffffffffffff6020820151166020840152015160408201906000915b60058310610629575050506020610400600192019501910191859493926103df565b602060c0600192604085516060815160ff815116855267ffffffffffffffff8782015116878601526001600160a01b038482015116848601520151606084015267ffffffffffffffff85820151166080840152015160a082015201920192019190610607565b833567ffffffffffffffff81116101165760a0604435840182013603602319011261011657604051916106c183610c25565b6044803585018301602481013585529081013560208501526106e590606401610bd8565b60408401526106fc60848386604435010101610bd8565b606084015260a48285604435010101359067ffffffffffffffff821161011657366043838588604435010101011215610116576024936020938493610752913691604480358b0190920101808901359101610c7b565b6080820152815201940193905061033a565b60a0843603126101165760a080602060249460405161078281610c25565b88358152610791838a01610bc4565b8382015260408901356040820152606089013560608201526107b560808a01610bd8565b60808201528152019501949250506102b7565b61040084360312610116576040516107df81610c09565b6107e885610bd8565b81526107f660208601610bd8565b602082015236605f860112156101165760405161081281610c25565b80366104008801116101165760408701905b61040088018210610848575050604082015281526104009390930192602001610240565b60c082360312610116576040519061085f82610c09565b608083360312610116576040519061087682610bed565b60ff8435168435036101165760c09260209285358152610897848701610bd8565b848201526108a760408701610bc4565b60408201526060860135606082015281526108c460808601610bd8565b8382015260a08501356040820152815201910190610824565b34610116576040366003190112610116576024803567ffffffffffffffff808211610116573660238301121561011657816004013590811161011657828201368483850101116101165760405193632cc27dc960e11b8552600435600486015260408582816001600160a01b037f0000000000000000000000000000000000000000000000000000000000000000165afa80156104c157600095600091610a90575b5061098b368585610c7b565b95865160208098012003610a4e5760015403610a0b575081601411610116573560601c90601c11610116577fa0350741b61dbfac254b368ae471ad60d1475cb3ba5f0d8ae71d50a8682aba9e926038604093013560c01c908260005260028152836000208267ffffffffffffffff198254161790558351928352820152a1005b84600a6064926040519262461bcd60e51b845260048401528201527f696e76616c696420766b000000000000000000000000000000000000000000006044820152fd5b606482876040519162461bcd60e51b83528160048401528201527f6661696c656420746f206f70656e206f757470757420636f6d6d69746d656e746044820152fd5b9550506040853d604011610ac1575b81610aac60409383610c41565b8101031261011657602085519501518661097f565b3d9150610a9f565b3461011657602036600319011261011657610ae2610cc2565b600435600155005b3461011657600036600319011261011657610b03610cc2565b60006001600160a01b03815473ffffffffffffffffffffffffffffffffffffffff1981168355167f8be0079c531659141344cd1fd0a4f28419497f9722a3daafe3b4186f6b6457e08280a3005b34610116576000366003190112610116576020600154604051908152f35b34610116576020366003190112610116576020906001600160a01b03610b92610bae565b166000526002825267ffffffffffffffff604060002054168152f35b600435906001600160a01b038216820361011657565b35906001600160a01b038216820361011657565b359067ffffffffffffffff8216820361011657565b6080810190811067ffffffffffffffff8211176104ab57604052565b6060810190811067ffffffffffffffff8211176104ab57604052565b60a0810190811067ffffffffffffffff8211176104ab57604052565b90601f8019910116810190811067ffffffffffffffff8211176104ab57604052565b67ffffffffffffffff81116104ab5760051b60200190565b92919267ffffffffffffffff82116104ab5760405191610ca5601f8201601f191660200184610c41565b829481845281830111610116578281602093846000960137010152565b6001600160a01b03600054163303610cd657565b60405163118cdaa760e01b8152336004820152602490fdfea264697066735822122056a996928d5dd7b7d9a5c198d0e67c11c060b1ba664628756e97596525d99fa864736f6c63430008140033",
  "devdoc": {
    "errors": {
      "OwnableInvalidOwner(address)": [
        {
          "details": "The owner is not a valid owner account. (eg. `address(0)`)"
        }
      ],
      "OwnableUnauthorizedAccount(address)": [
        {
          "details": "The caller account is not authorized to perform an operation."
        }
      ]
    },
    "kind": "dev",
    "methods": {
      "owner()": {
        "details": "Returns the address of the current owner."
      },
      "renounceOwnership()": {
        "details": "Leaves the contract without owner. It will not be possible to call `onlyOwner` functions. Can only be called by the current owner. NOTE: Renouncing ownership will leave the contract without an owner, thereby disabling any functionality that is only available to the owner."
      },
      "transferOwnership(address)": {
        "details": "Transfers ownership of the contract to a new account (`newOwner`). Can only be called by the current owner."
      }
    },
    "version": 1
  },
  "userdoc": {
    "kind": "user",
    "methods": {},
    "version": 1
  },
  "storageLayout": {
    "storage": [
      {
        "astId": 8,
        "contract": "contracts/HedgehogLoyalty.sol:HedgehogLoyalty",
        "label": "_owner",
        "offset": 0,
        "slot": "0",
        "type": "t_address"
      },
      {
        "astId": 194,
        "contract": "contracts/HedgehogLoyalty.sol:HedgehogLoyalty",
        "label": "vkHash",
        "offset": 0,
        "slot": "1",
        "type": "t_bytes32"
      },
      {
        "astId": 198,
        "contract": "contracts/HedgehogLoyalty.sol:HedgehogLoyalty",
        "label": "isLoyal",
        "offset": 0,
        "slot": "2",
        "type": "t_mapping(t_address,t_uint64)"
      }
    ],
    "types": {
      "t_address": {
        "encoding": "inplace",
        "label": "address",
        "numberOfBytes": "20"
      },
      "t_bytes32": {
        "encoding": "inplace",
        "label": "bytes32",
        "numberOfBytes": "32"
      },
      "t_mapping(t_address,t_uint64)": {
        "encoding": "mapping",
        "key": "t_address",
        "label": "mapping(address => uint64)",
        "numberOfBytes": "32",
        "value": "t_uint64"
      },
      "t_uint64": {
        "encoding": "inplace",
        "label": "uint64",
        "numberOfBytes": "8"
      }
    }
  }
}